:100000000C942B000C94E9160C94BF160C949516C6
:100010000C9448000C9448000C9448000C94480040
:100020000C9448000C9448000C945B0F0C9448000E
:100030000C9448000C9448000C9448000C94C10F98
:100040000C94DE0E0C9448000C9448000C9448006C
:100050000C944800030011241FBECFE5D8E0DEBF9A
:10006000CDBF11E0A0E6B0E0E8EBFDE302C00590F3
:100070000D92AA38B107D9F717E0AAE8B1E001C09C
:100080001D92A93AB107E1F70E94DE080C94DA1E2E
:100090000C9400000F931F93DF93CF9300D000D0F8
:1000A000CDB7DEB769837A838B839C83E0E4F0E08D
:1000B00086E8808309E210E080E090EDA7E0B0E000
:1000C00029813A814B815C81BC01CD010E94521E85
:1000D000DA01C9018150F801808300E410E080E07A
:1000E00090EDA7E0B0E029813A814B815C81BC01B1
:1000F000CD010E94521EDA01C9010197A109B1097F
:10010000892F9A2FAB2FBB27F8018083EBE2F0E019
:100110001082AAE2B0E0EAE2F0E0808188608C938D
:100120000F900F900F900F90CF91DF911F910F9133
:100130000895DF93CF9300D0CDB7DEB7AAE2B0E049
:10014000EAE2F0E0808180648C930F900F90CF9171
:10015000DF910895DF93CF930F92CDB7DEB78983F8
:10016000EBE2F0E08081882F90E080729070009741
:10017000B9F3ECE2F0E0898180830F90CF91DF91B9
:100180000895DF93CF9300D000D000D0CDB7DEB775
:100190009C838B837E836D831A82198211C0EB81CD
:1001A000FC818081282F8B819C8101969C838B838D
:1001B000822F0E94AA0089819A8101969A8389835D
:1001C00029813A818D819E812817390744F38D81D9
:1001D0009E8126960FB6F894DEBF0FBECDBFCF919D
:1001E000DF910895DF93CF9300D000D0CDB7DEB775
:1001F0009A8389837C836B83E7E2F0E087E68083E0
:10020000E6E2F0E086EF8083E6E2F0E08081882F8E
:1002100090E0807190700097B9F3E4E2F0E08081A3
:10022000918180509048E981FA819183808389810E
:100230009A8102969A8389838B819C8101979C8302
:100240008B838B819C810097D9F6E6E2F0E01082E7
:100250000F900F900F900F90CF91DF910895DF9343
:10026000CF93CDB7DEB728970FB6F894DEBF0FBE99
:10027000CDBF9F838E83688719821A821B821C825E
:100280001D821BC0EE81FF81808191819C0140E035
:1002900050E089819A81AB81BC81820F931FA41F9A
:1002A000B51F89839A83AB83BC838E819F8102961D
:1002B0009F838E838D818F5F8D839D818885981725
:1002C00008F389819A81AB81BC81BC01CD0128965C
:1002D0000FB6F894DEBF0FBECDBFCF91DF9108956A
:1002E000DF93CF93CDB7DEB728970FB6F894DEBF74
:1002F0000FBECDBF9E838D8378876F831A8219824C
:100300008D819E8106969E838D8383E08C8319C0A8
:10031000ED81FE812081318189819A818217930745
:1003200040F4ED81FE81808191819A8389838C8163
:100330008B838D819E8102969E838D838C818F5FBE
:100340008C838C81282F30E08F819885281739077E
:10035000F8F28B81882F90E028960FB6F894DEBFD4
:100360000FBECDBFCF91DF910895DF93CF93CDB76F
:10037000DEB72A970FB6F894DEBF0FBECDBF9887C1
:100380008F837A8769871E821D8219821A821B8257
:100390001C821E821D821FC0EF81F88580819181A1
:1003A0009C01442737FD4095542F89819A81AB8168
:1003B000BC81820F931FA41FB51F89839A83AB83CF
:1003C000BC838F819885029698878F838D819E81CB
:1003D00001969E838D832D813E8189859A8528177C
:1003E0003907D4F289859A859C01442737FD4095C9
:1003F000542F89819A81AB81BC81BC01CD010E94BF
:10040000741EDA01C9012A960FB6F894DEBF0FBE3A
:10041000CDBFCF91DF910895DF93CF9300D000D06F
:1004200000D0CDB7DEB79C838B837E836D831A8229
:1004300019821A82198243C0EB81FC8180819181EB
:100440009C018091790090917A008217930740F483
:10045000EB81FC818081918190937A008093790077
:10046000EB81FC81808191819C0180917B00909146
:100470007C002817390740F4EB81FC818081918151
:1004800090937C0080937B00EB81FC818081918143
:100490009C0180917D0090917E00A901481B590B21
:1004A000CA01EB81FC81918380838B819C810296C0
:1004B0009C838B8389819A8101969A838983298180
:1004C0003A818D819E81281739070CF4B5CF81E0E0
:1004D00026960FB6F894DEBF0FBECDBFCF91DF9149
:1004E0000895DF93CF9300D000D000D0CDB7DEB712
:1004F0009C838B837E836D831A82198218C0EB8163
:10050000FC818081918182959295907F9827807F50
:100510009827EB81FC81918380838B819C8102965B
:100520009C838B8389819A8101969A83898329810F
:100530003A818D819E81281739070CF326960FB6D4
:10054000F894DEBF0FBECDBFCF91DF910895DF934A
:10055000CF93CDB7DEB72B970FB6F894DEBF0FBEA3
:10056000CDBF998788877B876A871A8219821D8207
:100570001C8237C0E885F985808191819F838E83B5
:10058000888599850296998788878E819F8118161C
:1005900019061CF481E08B8306C08E819F8199230C
:1005A000DCF48FEF8B838B81282F332727FD309549
:1005B00080917F00909180002817390729F0898168
:1005C0009A8101969A8389838B81992787FD9095DB
:1005D0009093800080937F008C819D8101969D8304
:1005E0008C832C813D818A859B852817390714F2DD
:1005F00089819A812B960FB6F894DEBF0FBECDBFCE
:10060000CF91DF910895DF93CF93CDB7DEB72A97CF
:100610000FB6F894DEBF0FBECDBF98878F837A8761
:1006200069871E821D8219821A821B821C821E8289
:100630001D822BC0EF81F88520813181EF81F88503
:1006400080819181AC01249FC001259F900D349F32
:10065000900D11249C01442737FD4095542F89812A
:100660009A81AB81BC81820F931FA41FB51F898320
:100670009A83AB83BC838F819885029698878F83FA
:100680008D819E8101969E838D832D813E818985FA
:100690009A852817390774F289819A81AB81BC81C8
:1006A000BC01CD012A960FB6F894DEBF0FBECDBFB8
:1006B000CF91DF910895DF93CF93CDB7DEB7289721
:1006C0000FB6F894DEBF0FBECDBF9C838B837E83B5
:1006D0006D8358874F831A8219821A8219821FC02C
:1006E000EB81FC8180819181ED81FE81918380830A
:1006F000EB81FC8180819181ED81FE8193838283F6
:100700008B819C8102969C838B838D819E81049634
:100710009E838D8389819A8101969A838983298119
:100720003A818F81988528173907D4F228960FB619
:10073000F894DEBF0FBECDBFCF91DF910895DF9358
:10074000CF93CDB7DEB72A970FB6F894DEBF0FBEB2
:10075000CDBF9C838B837E836D8358874F831A82A2
:1007600019821A82198217C0EB81FC8180819181E4
:10077000ED81FE81918380838D819E8102969E838F
:100780008D838B819C8102969C838B8389819A8146
:1007900001969A83898329813A818F8198852817C8
:1007A000390714F32A960FB6F894DEBF0FBECDBFFB
:1007B000CF91DF910895DF93CF93CDB7DEB72D971B
:1007C0000FB6F894DEBF0FBECDBF9A8789878985A3
:1007D0009A8502966FE30E942F01DC01CB01BC01D8
:1007E000CD010E94D11BDC01CB0189839A83AB83AD
:1007F000BC8389859A85089665E10E942F01DC01FA
:10080000CB01BC01CD010E94D11BDC01CB01809347
:10081000A4059093A505A093A605B093A705809184
:10082000A4059091A505A091A605B091A705BC01CE
:10083000CD0129813A814B815C810E94411ADC0102
:10084000CB018093A4059093A505A093A605B09332
:10085000A7058091A4059091A505A091A605B0914A
:10086000A7051D86BC01CD012AE939E949E95EE306
:100870000E94ED1A181614F481E08D8781E09D85A1
:1008800089278823E9F48091A4059091A505A0917A
:10089000A605B091A7051C86BC01CD012DEC3CEC52
:1008A0004CE05FE30E944D1B882314F481E08C87A9
:1008B00081E09C858927882319F481E08B8701C01A
:1008C0001B868B852D960FB6F894DEBF0FBECDBF6D
:1008D000CF91DF910895DF93CF930F92CDB7DEB71D
:1008E00089838981809394018091A8059091A905BD
:1008F0000E94AA0081E090E090939301809392017E
:100900000F90CF91DF910895DF93CF93CDB7DEB7EE
:1009100028970FB6F894DEBF0FBECDBF9C838B83A4
:100920007E836D8358874F831A8219821A821982B7
:1009300023C0EB81FC8120813181ED81FE818081AA
:100940009181AC01249FC001259F900D349F900D93
:100950001124EB81FC81918380838B819C810296A1
:100960009C838B838D819E8102969E838D8389815A
:100970009A8101969A83898329813A818F8198850A
:1009800028173907B4F228960FB6F894DEBF0FBEC9
:10099000CDBFCF91DF910895DF93CF93CDB7DEB771
:1009A00028970FB6F894DEBF0FBECDBF9C838B8314
:1009B0007E836D8358874F831A82198283E090E08B
:1009C0009A8389831DC0EB81FC8120813181ED8177
:1009D000FE8180819181820F931FEB81FC81918345
:1009E00080838B819C8102969C838B838D819E81E9
:1009F00002969E838D8389819A8101969A83898349
:100A000029813A818F81988528173907E4F2289641
:100A10000FB6F894DEBF0FBECDBFCF91DF91089522
:100A2000DF93CF9300D000D0CDB7DEB79C838B830C
:100A30001982EB81FC818781843008F470C0EB81DE
:100A4000FC8187818F3108F06AC084E295E00E94C2
:100A5000DB03882309F463C0EB81FC8180859185E9
:100A6000A285B38580302DE2920721E3A20721E021
:100A7000B20708F054C0EB81FC81808188608083DC
:100A8000EB81FC8180818695869586958170982F73
:100A9000EB81FC818081869586958170980FEB8132
:100AA000FC81808186958170980FEB81FC8180812B
:100AB0008170890F89838981833008F441C0EB817B
:100AC000FC81808180628083EB81FC8180818F7ECC
:100AD0008083EB81FC811282EB81FC8180818E7F9F
:100AE0008083EB81FC8180818D7F8083EB81FC8121
:100AF00080818B7F8083EB81FC818081877F8083F5
:100B0000EB81FC811482EB81FC811582EB81FC81FD
:100B10001682EB81FC8117820E94DB1011C0EB81F1
:100B2000FC818081877F8083EB81FC811482EB8153
:100B3000FC811582EB81FC811682EB81FC8117829E
:100B4000EB81FC81808186958170EB81FC81982FFF
:100B5000917080818E7F892B8083EB81FC818081E5
:100B6000869586958170EB81FC818170982F990F15
:100B700080818D7F892B8083EB81FC8180818695AC
:100B8000869586958170EB81FC818170982F990FF5
:100B9000990F80818B7F892B8083EB81FC818581FC
:100BA000EB81FC818483EB81FC818681EB81FC817C
:100BB0008583EB81FC818781EB81FC8186830F90AB
:100BC0000F900F900F90CF91DF910895DF93CF9307
:100BD00000D00F92CDB7DEB79A8389836B83E9810A
:100BE000FA811382E981FA8180818071882309F476
:100BF00041C0E981FA8182818F5FE981FA81828334
:100C000028EA35E08B81882F90E0982F8827820F83
:100C1000931F27E931E0B90140E850E00E945B03EF
:100C200087E991E00E946C0C87E991E024E235E0CD
:100C3000B9010E94360D84EA94E024E235E0B9015E
:100C400040E450E00E94CC0484EA94E060E470E068
:100C50000E947001E981FA81878384E295E024EAA9
:100C600034E0B90140E450E00E949F0389819A81F9
:100C70000E9410050F900F900F90CF91DF91089573
:100C8000DF93CF9300D0CDB7DEB79A838983E98114
:100C9000FA811382E981FA8180818F7E8083E981E4
:100CA000FA811282E981FA8180818E7F8083E981D5
:100CB000FA8180818D7F8083E981FA8180818B7FB9
:100CC0008083E981FA818081877F8083E981FA814D
:100CD0001482E981FA811582E981FA811682E9811B
:100CE000FA8117820F900F90CF91DF910895DF93D3
:100CF000CF9300D0CDB7DEB79A838983E981FA819B
:100D000083818F5FE981FA818383E981FA8183811D
:100D10008B3040F0E981FA81808180618083E981B4
:100D2000FA811282E981FA8180818E7F8083E98154
:100D3000FA8180818D7F8083E981FA8180818B7F38
:100D40008083E981FA818081877F8083E981FA81CC
:100D50001482E981FA811582E981FA811682E9819A
:100D6000FA8117820F900F90CF91DF910895DF9352
:100D7000CF9300D0CDB7DEB78A8319828A818F33B3
:100D800010F08FE38A8380917800882319F0809196
:100D900078008A838A81809377008A81880F880F00
:100DA0008983EAE3F0E089818083EBE3F0E08981E5
:100DB000809580830F900F90CF91DF910895DF93FE
:100DC000CF9300D0CDB7DEB78A8319828A81880F8E
:100DD000880F8983EAE3F0E089818083EBE3F0E028
:100DE0008981809580830F900F90CF91DF91089536
:100DF000DF93CF9300D00F92CDB7DEB79A8389836C
:100E00006B83ECE3F0E08081882F90E0827090703B
:100E10000097B9F7EEE3F0E089819A8191838083AE
:100E2000EDE3F0E08B8180830F9304E00CBB06E0E0
:100E30000CBB0F910F900F900F90CF91DF91089501
:100E4000DF93CF9300D0CDB7DEB70F900F90CF9147
:100E5000DF910895DF93CF93CDB7DEB728970FB614
:100E6000F894DEBF0FBECDBF84E590E09B838A83FC
:100E7000EA81FB81849189838981882F90E09F8317
:100E80008E838E819F818330910569F48091540017
:100E9000882F90E0E1E5F0E02081622F0E94F806C3
:100EA00081E088870EC0E1E5F0E08081282F30E006
:100EB0008E819F812817390719F481E0888701C046
:100EC0001886888528960FB6F894DEBF0FBECDBF72
:100ED000CF91DF910895DF93CF93CDB7DEB72E97F3
:100EE0000FB6F894DEBF0FBECDBF0E944515E4E5F6
:100EF000F0E01082ABE5B0E0EBE5F0E080818062ED
:100F00008C9388E00E94B7067894A5E5B0E0E5E50B
:100F1000F0E080818F788C93A5E5B0E0E5E5F0E026
:100F2000808180688C938895A5E5B0E0E5E5F0E0E8
:100F300080818F778C93A5E5B0E0E5E5F0E08081D6
:100F40008F7880618C93A5E5B0E0E5E5F0E08081E5
:100F500080688C938895A5E5B0E0E5E5F0E08081B8
:100F60008F778C93A5E5B0E0E5E5F0E080818F78A0
:100F700080628C93A5E5B0E0E5E5F0E080818068D3
:100F80008C938895A5E5B0E0E5E5F0E080818F776A
:100F90008C93A5E5B0E0E5E5F0E080818F78806393
:100FA0008C93A5E5B0E0E5E5F0E0808180688C9366
:100FB0008895A5E5B0E0E5E5F0E080818F778C933A
:100FC000A5E5B0E0E5E5F0E080818F7880668C9360
:100FD000A5E5B0E0E5E5F0E0808180688C93889538
:100FE000A5E5B0E0E5E5F0E080818F778C93A5E59D
:100FF000B0E0E5E5F0E0808180678C93A5E5B0E0A6
:10100000E5E5F0E0808180688C938895A5E5B0E007
:10101000E5E5F0E080818F778C9380E090E0A8E4B4
:10102000B3E48B879C87AD87BE876B857C858D8578
:101030009E8520E030E040E055E40E944719DC0145
:10104000CB018F839887A987BA876F817885898537
:101050009A8520E030E040E85FE30E944D1B882342
:101060002CF481E090E09E838D833FC06F81788572
:1010700089859A8520E03FEF4FE757E40E94ED1AFB
:1010800018164CF56B857C858D859E8520E030E0BB
:1010900040E251E40E944719DC01CB01BC01CD01C3
:1010A0000E947117DC01CB019E838D830FC08CECF5
:1010B00090E09C838B838B819C810197F1F79C83CB
:1010C0008B838D819E8101979E838D838D819E81EF
:1010D000009769F714C06F81788589859A850E9489
:1010E0007117DC01CB019E838D838D819E819A8354
:1010F000898389819A810197F1F79A83898380E0B6
:1011000090E02E960FB6F894DEBF0FBECDBFCF9104
:10111000DF910895DF93CF9300D0CDB7DEB787E995
:1011200093E09A8389832091790030917A008091AD
:101130007B0090917C00A901481B590BCA0151E02A
:10114000853A950770F080917700823000F18091A8
:101150007700815080937700809177000E94B706D6
:1011600016C08091790090917A0020917B00309197
:101170007C00821B930B823D910548F4809177009F
:101180008F5F80937700809177000E94B70680E0A0
:1011900092E090937A008093790080E092E09093BF
:1011A0007C0080937B0084E893E090938B01809394
:1011B0008A010F900F90CF91DF910895DF93CF9325
:1011C00000D000D000D0CDB7DEB71C82E4E5F0E05F
:1011D0008081882311F00E94F41560E078EE83E0AE
:1011E00090E00E944A0082E090E09093A9058093ED
:1011F000A80583E090E09093AB058093AA058CEF5F
:101200009FEF9093AD058093AC058DEF9FEF90938A
:10121000B1058093B0058FEF9FEF9093B305809356
:10122000B20583E090E09093B5058093B40585E026
:1012300090E09093B7058093B6058CEF9FEF909365
:10124000B9058093B8058BEF9FEF9093BB05809312
:10125000BA0588EA95E06AE070E00E94A702EA8198
:10126000FB818487198214C08981482F50E08981CD
:10127000882F90E09C012F5F3F4FCA01880F991F74
:10128000FC01E855FA4F3183208389818F5F898380
:10129000898188234CF788EA95E027E931E0B90194
:1012A00040E850E00E945B0387E991E00E946C0CEB
:1012B00087E991E024E235E0B9010E94360D80E62D
:1012C00090E061E170E00E94C1000E94451587E94D
:1012D00093E09B838A831092A3030E942A07898349
:1012E0008981882309F47EC10E94DF1581E00E9474
:1012F000B70680E00E94B70680E00E94DF060E94E9
:10130000D10F0E94F41580919101813009F0BFC086
:1013100080918100813009F0BAC080918A0190915A
:101320008B01019690938B0180938A0180918A01B1
:1013300090918B01883C910539F080918A019091C0
:101340008B01893C910569F488EA95E060E870E0DA
:101350000E94B50190937E0080937D0080E20E9400
:10136000B70680918A0190918B0121E08D3292071E
:1013700008F488C010929401109293011092920187
:1013800081E08093810088EA95E060E870E00E9447
:101390000C0289838981813009F064C088EA95E074
:1013A00060E870E00E940303DC01CB01EA81FB816D
:1013B00080879187A287B38788EA95E060E870E02C
:1013C0000E94A702EA81FB818487EA81FB818085F4
:1013D0009185A285B38581342CE9920720E0A2078C
:1013E00020E0B20758F0EA81FB818485893230F031
:1013F0008A819B8160E00E94E60504C08A819B810E
:101400000E947706EA81FB818281813A28F0EA8195
:10141000FB8180818F7E8083EA81FB81808591853D
:10142000A285B385803727E1920720E0A20720E05C
:10143000B20750F480918C0190918D0101969093A8
:101440008D0180938C0104C010928D0110928C014B
:1014500080918C0190918D0122E08237920710F0EB
:101460000E94200780918A0190918B0125E08531AF
:10147000920740F082ED90E090938B0180938A0177
:101480000E948A08809191018E7F809391018091C2
:101490009101823009F037CF80918100813009F0CD
:1014A00032CF80918A0190918B01019690938B01AC
:1014B00080938A0180918A0190918B0121E08D3285
:1014C000920708F489C081E08093940110929301FF
:1014D0001092920181E08093810088EA96E060E8B2
:1014E00070E00E940C0289838981813009F064C018
:1014F00088EA96E060E870E00E940303DC01CB011B
:10150000EA81FB8180879187A287B38788EA96E08A
:1015100060E870E00E94A702EA81FB818487EA818B
:10152000FB8180859185A285B38581342CE9920762
:1015300020E0A20720E0B20728F4EA81FB8184853D
:10154000893230F08A819B8161E00E94E60504C007
:101550008A819B810E947706EA81FB818281813AA0
:1015600028F0EA81FB8180818F7E8083EA81FB8184
:1015700080859185A285B385803727E1920720E099
:10158000A20720E0B20750F480918C0190918D0168
:10159000019690938D0180938C0104C010928D016F
:1015A00010928C0180918C0190918D0122E0823704
:1015B000920710F00E94200780918A0190918B0180
:1015C00025E08531920740F082ED90E090938B0109
:1015D00080938A010E948A08809191018D7F809377
:1015E000910191CE26960FB6F894DEBF0FBECDBF07
:1015F000CF91DF9108953D0A4F0A850AE00A5E0BFC
:10160000010CC60CAE0DB80EE40F31119D12291459
:10161000D3159A177D197C1B931DC41F0B226824B8
:10162000D9265C29F12B962E48310634CF36A139C4
:101630007A3C583F3A421E450148E34AC14D9A5010
:101640006C533556F458A65B4A5EDF606363D4651D
:101650003168786AA86CC06EBE70A1726874127628
:101660009E770B79577A837B8D7C757D3B7EDD7E03
:101670005B7FB67FEC7FFE7FEC7FB67F5B7FDD7E9E
:101680003B7E757D8D7C837B577A0B799E771276B6
:101690006874A172BE70C06EA86C786A3168D46537
:1016A0006363DF604A5EA65BF45835566C539A500C
:1016B000C14DE34A01481E453A42583F7A3CA139A0
:1016C000CF3606344831962EF12B5C29D926682472
:1016D0000B22C41F931D7C1B7E199A17D315291446
:1016E0009D123111E40FB80EAE0DC60C010C5E0B4D
:1016F000E00A850A4F0AFF7F0000D77F4706617F17
:101700008B0C9C7EC712897DF818297C191F7C7A66
:10171000272583781E2B4076FB30B573B936E170F0
:10172000563CC96DCD416C6A1C47CE663F4CF16298
:101730003351D65EF455815A815AF455D65E3351F1
:10174000F1623F4CCE661C476C6ACD41C96D563C78
:10175000E170B936B573FB3040761E2B83782725B0
:101760007C7A191F297CF818897DC7129C7E8B0C06
:10177000617F4706D77F0000FE7FB9F9D77F75F3F9
:10178000617F39ED9C7E08E7897DE7E0297CD9DA25
:101790007C7AE2D4837805CF407647C9B573AAC373
:1017A000E17033BEC96DE4B86C6AC1B3CE66CDAE2C
:1017B000F1620CAAD65E7FA5815A2AA1F5550F9D2C
:1017C000335132993F4C94951C473792CD411F8F2E
:1017D000563C4C8CB936C089FB307D871E2B8485E6
:1017E0002725D883191F7782F8186481C7129F8034
:1017F0008B0C29804706000000018000800140001A
:101800004001C000C00120002001A000A001600034
:101810006001E000E0011000100190009001500014
:101820005001D000D00130003001B000B001700094
:101830007001F000F00108000801880088014800EC
:101840004801C800C80128002801A800A8016800B4
:101850006801E800E8011800180198009801580094
:101860005801D800D80138003801B800B801780014
:101870007801F800F801050064003F922F921F9351
:101880000F93DF93CF93DC01EB019927E6EFF5E1AE
:1018900000E810E0259135914D915D91B503B001BF
:1018A0002C031001691FBC03790B300C611D791FDB
:1018B000DA03790B300C611D791F69937993699371
:1018C00079930150104031F7CF91DF910F911F9123
:1018D0002F903F90112408953F922F925F924F9244
:1018E0007F926F929F928F92BF92AF92DF92CF9230
:1018F000FF92EF921F930F93DF93CF93FC0181E050
:1019000090E0A0E4B0E004E0809F6001909FD00CE4
:101910007C019F938F93EF01A09FC00DD11DB09FBD
:10192000D00DFF93EF93BB24AA2499270081118146
:10193000159507956881798175956795A801061BAE
:10194000170B460F571F41935193208131813595D5
:1019500027956A817B8175956795A901261B370BB1
:10196000460F571F419351930F01E6EFF6E1EA0D41
:10197000FB1D4591559165917591F00195032001ED
:101980000C031001491E9C03590A300C411C591EBE
:10199000D803590A300C411C591EB70340012E03CD
:1019A0003001891EBE03990A700C811C991EFA032E
:1019B000990A700C811C991E260C371C481C591C56
:1019C00049925992B50320012C031001491EBC0312
:1019D000590A300C411C591EDA03590A300C411CBB
:1019E000591E970340010E033001891E9E03990A78
:1019F000700C811C991EF803990A700C811C991EA9
:101A0000261837084808590849925992AC0CBD1C51
:101A1000B0FE8CCF04E0A09FC00DD11DE00DF11DE4
:101A2000B09FD00DF00D81E0E81AF90A09F07BCFE4
:101A3000EF91FF918F919F91880F991FB695A79570
:101A4000109609F060CFCF91DF910F911F91EF9029
:101A5000FF90CF90DF90AF90BF908F909F906F904E
:101A60007F904F905F902F903F9008953F922F92DC
:101A70005F924F927F926F929F928F92BF92AF929E
:101A80001F930F93DF93CF935C01EB01E6EFF7E138
:101A9000992700E410E0A591B591AA0DBB1D2D91E9
:101AA0003D914D915D91B30320012A031001491E20
:101AB000BA03590A300C411C591EBA03590A300C9A
:101AC000411C591ED50340014C033001891EDC0323
:101AD000990A700C811C991EDC03990A700C811CF8
:101AE000991E260C371C481C591C66247724882410
:101AF000992421E030E04427552770E1220C331C63
:101B0000441C551C661C771C881C991C220C331C19
:101B1000441C551C661C771C881C991C2AF4620EF8
:101B2000731E841E951E04C0621A730A840A950AE5
:101B3000220F331F441F287F256097FC22507A957F
:101B4000E9F6469537952795469537952795299334
:101B500039930150104009F09ECFCF91DF910F9142
:101B60001F91AF90BF908F909F906F907F904F90FC
:101B70005F902F903F9011240895AC019927D703CF
:101B8000F0014E03D001E91FDE03F90BB00DE11D9A
:101B9000F91FFC03F90BB00DE11DF91FCF01112452
:101BA00008950FB680959AE0F89479E87A95F1F760
:101BB00008F0C69808F4C69A86959A95B1F70FBEB4
:101BC0000895FC018591882311F0EBDFFBCF089588
:101BD0003327E0E2F0E267FF08C0619597FF05C098
:101BE000EDE280959095811D911D47FF02C04195C2
:101BF000F0E350E17727880F991F771F761710F0D1
:101C0000761B83955A95B9F77A3008F0795F705D45
:101C10007F9333958517950761F7ED3211F4EF93B4
:101C20003395341718F4FF933395FBCF8F91B9DFB9
:101C30003A95E1F70895ADB7BEB71396ED91FD91D2
:101C40008591803021F0853219F0ABDFF9CF08950E
:101C500040E0E89485918532C1F3803311F46894B3
:101C600085918A3348F4805390F3440F042E440F37
:101C7000440F400D480FF4CF782F8D919D9173360E
:101C800021F37337A1F0783560E149F075376AE0E8
:101C900031F0743666EF19F0723662E0C1F60EF478
:101CA0004195FF93EF9394DFEF91FF91C9CFFF939D
:101CB000EF9387DFF9CF0FB680E8F894B599FECFA0
:101CC000B59BFECF95E49A95F1F79AE89A95F1F7CE
:101CD0008695B59B8068C8F70FBE0895FC0151E05A
:101CE000EADF8D3079F0883041F05617C8F780323E
:101CF000B8F38193539555DFF3CF513089F35A955B
:101D00003197F9CF4EDF10820895FC01A191B19176
:101D100022273327E8948C918D3211F468941FC0E8
:101D20008032F8F029F41196F6CF8C918132D8F0F8
:101D3000813608F080528053A0F08A3018F081314B
:101D400080F08750841768F491E1551B08F4540F14
:101D50005795379527959A95C9F7280F311D1196F4
:101D6000E4CF882706C081E026F420953095211D18
:101D7000311DB293A293FB01219331930895DF9318
:101D8000CF93CDB7DEB7E3E5F0E01082E2E5F0E017
:101D90001082A3E5B0E0E3E5F0E080818D608C93F4
:101DA000ECE5F0E081E08083A9E5B0E0E9E5F0E072
:101DB000808182608C93CF91DF9108951F920F9262
:101DC0000FB60F9211242F933F935F936F937F93DE
:101DD0008F939F93AF93BF93EF93FF93DF93CF9333
:101DE00000D0CDB7DEB7E4E2F0E0808191819A8344
:101DF000898380918E01882F90E020918F0130910E
:101E000090019695982F882797958795820F931F15
:101E1000880F991FFC01E855FA4F89819A819183B7
:101E2000808380918F019091900101969093900111
:101E300080938F0180919101833009F4FFCF8091CD
:101E40008F01909190018038910509F580918E0164
:101E5000282F30E081E090E002C0880F991F2A957A
:101E6000E2F7982F80919101892B80939101109234
:101E7000900110928F0180918E01882F90E0019641
:101E800022E030E0B9010E943F1E80938E010F9046
:101E90000F90CF91DF91FF91EF91BF91AF919F9103
:101EA0008F917F916F915F913F912F910F900FBE16
:101EB0000F901F9018951F920F920FB60F9211243A
:101EC000DF93CF93CDB7DEB7CF91DF910F900FBEE9
:101ED0000F901F901895DF93CF93CDB7DEB7ABE38C
:101EE000B0E0EBE3F0E080818C93AAE3B0E0EAE3BA
:101EF000F0E080818E7F8C93E7E2F0E080EC8083DD
:101F0000A7E2B0E0E7E2F0E080818C93A0E5B0E0EA
:101F1000E0E5F0E0808180648C93A0E5B0E0E0E54E
:101F2000F0E0808180628C93A6E2B0E0E6E2F0E02F
:101F3000808180628C93A6E2B0E0E6E2F0E08081EE
:101F400088608C93A6E2B0E0E6E2F0E080818260F7
:101F50008C93A6E2B0E0E6E2F0E0808184608C93AE
:101F6000A6E2B0E0E6E2F0E0808180648C93A6E235
:101F7000B0E0E6E2F0E0808180688C93CF91DF9161
:101F800008951F920F920FB60F921124DF93CF93F3
:101F9000CDB7DEB7CF91DF910F900FBE0F901F909E
:101FA0001895DF93CF93CDB7DEB70E946B0F0E94D9
:101FB000BF0E7894CF91DF910895DF93CF9300D037
:101FC000CDB7DEB7A9E5B0E0E9E5F0E080818D7F2F
:101FD0008C930F900F90CF91DF910895DF93CF9363
:101FE00000D0CDB7DEB7A9E5B0E0E9E5F0E080814B
:101FF00082608C9310928E011092900110928F014A
:10200000109291010F900F90CF91DF910895DF937F
:10201000CF93CDB7DEB7E5E4F0E087E68083E4E474
:10202000F0E01082E3E4F0E01082CF91DF910895B8
:10203000DF93CF93CDB7DEB7E5E4F0E087E68083AA
:10204000A1E3B0E0E1E3F0E0808180688C93CF9180
:10205000DF910895DF93CF93CDB7DEB7E5E4F0E0ED
:1020600080E68083A1E3B0E0E1E3F0E080818F7758
:102070008C93CF91DF910895DF93CF93CDB7DEB7E7
:10208000A1E3B0E0E1E3F0E0808180688C930E94FE
:1020900007107894CF91DF910895DF93CF93CDB758
:1020A000DEB72F970FB6F894DEBF0FBECDBF8F8778
:1020B000E3E4F0E08F8580830E94181080E090E8D0
:1020C000ABE3B5E48B879C87AD87BE876B857C854A
:1020D0008D859E8520E030E04AE753E40E94471951
:1020E000DC01CB018F839887A987BA876F817885B8
:1020F00089859A8520E030E040E85FE30E944D1B2F
:1021000088232CF481E090E09E838D833FC06F8113
:10211000788589859A8520E03FEF4FE757E40E9454
:10212000ED1A18164CF56B857C858D859E8520E013
:1021300030E040E251E40E944719DC01CB01BC01D0
:10214000CD010E947117DC01CB019E838D830FC0EE
:1021500089E190E09C838B838B819C810197F1F7CF
:102160009C838B838D819E8101979E838D838D813E
:102170009E81009769F714C06F81788589859A855B
:102180000E947117DC01CB019E838D838D819E811E
:102190009A83898389819A810197F1F79A83898348
:1021A0000E942A102F960FB6F894DEBF0FBECDBF47
:1021B000CF91DF910895DF93CF93CDB7DEB7AC9782
:1021C0000FB6F894DEBF0FBECDBF0E94DD0F88EAC8
:1021D00095E09CA38BA38BA19CA184969AA389A331
:1021E00089A19AA1849698A38F8FE9A1FAA111825F
:1021F0001082E9A1FAA113821282E9A1FAA1158243
:1022000014820E94B5131EA231C08BA19CA10E9412
:102210008B13E9A1FAA120813181EBA1FCA180817E
:102220009181820F931FE9A1FAA191838083E9A193
:10223000FAA122813381EBA1FCA182819381820FDB
:10224000931FE9A1FAA193838283E9A1FAA12481D2
:102250003581EBA1FCA184819581820F931FE9A1B7
:10226000FAA1958384838EA18F5F8EA38EA18A307D
:1022700060F2E9A1FAA1808191812AE030E0B90100
:102280000E943F1ECB01EF8DF8A191838083E9A1CD
:10229000FAA1828193812AE030E0B9010E943F1EB9
:1022A000CB01EF8DF8A193838283E9A1FAA1848108
:1022B00095812AE030E0B9010E943F1ECB01EF8DED
:1022C000F8A1958384830E943C1083E28DA3DEC035
:1022D000E9A1FAA111821082E9A1FAA11382128266
:1022E000E9A1FAA1158214828DA10E944D101E8EC3
:1022F0001D8EC2C01EA231C08BA19CA10E948B1357
:10230000E9A1FAA120813181EBA1FCA18081918119
:10231000820F931FE9A1FAA191838083E9A1FAA119
:1023200022813381EBA1FCA182819381820F931FD3
:10233000E9A1FAA193838283E9A1FAA124813581DD
:10234000EBA1FCA184819581820F931FE9A1FAA1E1
:10235000958384838EA18F5F8EA38EA18A3060F2D5
:10236000E9A1FAA1808191812AE030E0B9010E94BF
:102370003F1ECB01E9A1FAA191838083E9A1FAA1D3
:10238000828193812AE030E0B9010E943F1ECB0197
:10239000E9A1FAA193838283E9A1FAA184819581BD
:1023A0002AE030E0B9010E943F1ECB01E9A1FAA169
:1023B00095838483EF8DF8A120813181E9A1FAA171
:1023C00080819181A901481B590BCA019CA78BA749
:1023D0008BA59CA599233CF44BA55CA550954195F4
:1023E0005F4F5CA74BA78BA59CA5893C9105E4F5A5
:1023F000EF8DF8A124813581E9A1FAA1848195812D
:10240000A901481B590BCA019AA789A789A59AA5B2
:1024100099233CF449A55AA5509541955F4F5AA779
:1024200049A789A59AA5893C9105F4F4EF8DF8A1F7
:1024300022813381E9A1FAA182819381A901481BFC
:10244000590BCA0198A78FA38FA198A599233CF493
:102450004FA158A5509541955F4F58A74FA38FA105
:1024600098A5893C91051CF00E94EE0FF9C08D8D56
:102470009E8D01969E8F8D8F8D8D9E8D23E0883E43
:10248000920708F437CF8DA1815F8DA38DA1853F81
:1024900008F41ECF80E090E6AAEEB6E4898F9A8F0A
:1024A000AB8FBC8F698D7A8D8B8D9C8D20E030E059
:1024B0004AE753E40E944719DC01CB018D8B9E8BC8
:1024C000AF8BB88F6D897E898F89988D20E030E041
:1024D00040E85FE30E944D1B88232CF481E090E0EC
:1024E0009C8B8B8B3FC06D897E898F89988D20E076
:1024F0003FEF4FE757E40E94ED1A18164CF5698D2F
:102500007A8D8B8D9C8D20E030E040E251E40E947A
:102510004719DC01CB01BC01CD010E947117DC0120
:10252000CB019C8B8B8B0FC089E190E09A8B898BC0
:1025300089899A890197F1F79A8B898B8B899C8974
:1025400001979C8B8B8B8B899C89009769F714C0B2
:102550006D897E898F89988D0E947117DC01CB016E
:102560009C8B8B8B8B899C89988B8F878F85988987
:102570000197F1F7988B8F8780E090E6AAEEB6E49A
:102580008B879C87AD87BE876B857C858D859E8577
:1025900020E030E04AE753E40E944719DC01CB0118
:1025A0008F839887A987BA876F81788589859A856F
:1025B00020E030E040E85FE30E944D1B88232CF4CC
:1025C00081E090E09E838D833FC06F81788589850F
:1025D0009A8520E03FEF4FE757E40E94ED1A181666
:1025E0004CF56B857C858D859E8520E030E040E252
:1025F00051E40E944719DC01CB01BC01CD010E94CE
:102600007117DC01CB019E838D830FC089E190E0BF
:102610009C838B838B819C810197F1F79C838B83B7
:102620008D819E8101979E838D838D819E810097F0
:1026300069F714C06F81788589859A850E94711722
:10264000DC01CB019E838D838D819E819A8389835A
:1026500089819A810197F1F79A8389830E94EE0F0D
:10266000AC960FB6F894DEBF0FBECDBFCF91DF9111
:102670000895DF93CF93CDB7DEB7A8E3B0E0E8E3EA
:10268000F0E080818F7E8C93CF91DF910895DF936E
:10269000CF93CDB7DEB7A8E3B0E0E8E3F0E0808108
:1026A00080618C93CF91DF910895DF93CF9300D019
:1026B0000F92CDB7DEB78A836B838A818F77898348
:1026C0000E94391389810E944F148B810E944F14FC
:1026D0000E9447130F900F900F90CF91DF910895B4
:1026E000DF93CF9300D00F92CDB7DEB78A836B8391
:1026F0008A81806889830E94391389810E944F14DE
:102700000E949A148B830E9447130F900F900F9092
:10271000CF91DF910895DF93CF9300D000D0CDB754
:10272000DEB79C838B8382EF8A830E9439138A8170
:102730000E944F1419820DC00E949A14EB81FC81F3
:1027400080838B819C8101969C838B8389818F5FA1
:1027500089838981863080F30E9447130F900F9000
:102760000F900F90CF91DF910895DF93CF930F9249
:10277000CDB7DEB70E942A140E94411480E069811F
:102780000E9470138EE160E00E9455138FE160E0BB
:102790000E94551380E260E00E94551381E260E0E0
:1027A0000E94551382E260E00E94551383E260E0CC
:1027B0000E94551384E261E00E94551385E261E0B6
:1027C0000E94551386E26BE20E94551387E260E097
:1027D0000E94551388E269E00E94551389E26FEF69
:1027E0000E9455138AE260E80E9455138CE26AE069
:1027F0000E9455138DE268E20E9455138EE260E05C
:102800000E9455138FE260E00E94551388E361E84F
:102810000E9455130F90CF91DF910895DF93CF93CE
:102820000F92CDB7DEB789838981882341F4ADE269
:10283000B0E0EDE2F0E0808183608C9307C0ADE210
:10284000B0E0EDE2F0E080818C7F8C930F90CF912F
:10285000DF910895DF93CF93CDB7DEB7E8E3F0E0E3
:1028600080EB8083E7E3F0E080EB8083EDE2F0E053
:1028700082E58083EEE2F0E081E08083CF91DF911A
:102880000895DF93CF93CDB7DEB7ADE2B0E0EDE2D0
:10289000F0E080818C608C93CF91DF910895DF937D
:1028A000CF930F92CDB7DEB78983EFE2F0E0898155
:1028B0008083EEE2F0E080818823DCF70F90CF91F7
:1028C000DF910895DF93CF930F92CDB7DEB7898361
:1028D000EFE2F0E089818083EEE2F0E080818823FE
:1028E000DCF7EFE2F0E080810F90CF91DF91089567
:1028F000DF93CF9300D0CDB7DEB78A8319828A8168
:10290000992787FD9095892F99270E94621499270E
:1029100087FD9095982F882789838A810E94621469
:10292000982F8981892B898389810F900F90CF916E
:10293000DF910895DF93CF93CDB7DEB78FEF0E947D
:102940004F14EFE2F0E08081CF91DF910895DF93A3
:10295000CF93CDB7DEB72E970FB6F894DEBF0FBE7C
:10296000CDBFA7E3B0E0E7E3F0E0808181608C9326
:10297000A8E3B0E0E8E3F0E080818E7F8C930E94D2
:10298000DD0F80E090E0AAE7B4E48B879C87AD87F9
:10299000BE876B857C858D859E8520E030E04AE78B
:1029A00053E40E944719DC01CB018F839887A987E4
:1029B000BA876F81788589859A8520E030E040E884
:1029C0005FE30E944D1B88232CF481E090E09E83FE
:1029D0008D833FC06F81788589859A8520E03FEFA0
:1029E0004FE757E40E94ED1A18164CF56B857C856D
:1029F0008D859E8520E030E040E251E40E94471939
:102A0000DC01CB01BC01CD010E947117DC01CB01BF
:102A10009E838D830FC089E190E09C838B838B81A3
:102A20009C810197F1F79C838B838D819E81019717
:102A30009E838D838D819E81009769F714C06F817D
:102A4000788589859A850E947117DC01CB019E8368
:102A50008D838D819E819A83898389819A81019753
:102A6000F1F79A838983A8E3B0E0E8E3F0E080819E
:102A700081608C930E94EE0F2E960FB6F894DEBF05
:102A80000FBECDBFCF91DF910895DF93CF93CDB728
:102A9000DEB72E970FB6F894DEBF0FBECDBFA7E30B
:102AA000B0E0E7E3F0E0808182608C93A8E3B0E0DF
:102AB000E8E3F0E080818D7F8C9380E090E0AAE7EE
:102AC000B4E48B879C87AD87BE876B857C858D85BD
:102AD0009E8520E030E04AE753E40E944719DC017C
:102AE000CB018F839887A987BA876F81788589857D
:102AF0009A8520E030E040E85FE30E944D1B882388
:102B00002CF481E090E09E838D833FC06F817885B7
:102B100089859A8520E03FEF4FE757E40E94ED1A40
:102B200018164CF56B857C858D859E8520E030E000
:102B300040E251E40E944719DC01CB01BC01CD0108
:102B40000E947117DC01CB019E838D830FC089E148
:102B500090E09C838B838B819C810197F1F79C8310
:102B60008B838D819E8101979E838D838D819E8134
:102B7000009769F714C06F81788589859A850E94CE
:102B80007117DC01CB019E838D838D819E819A8399
:102B9000898389819A810197F1F79A838983A8E3D0
:102BA000B0E0E8E3F0E0808182608C932E960FB66F
:102BB000F894DEBF0FBECDBFCF91DF910895DF93B4
:102BC000CF93CDB7DEB7A7E3B0E0E7E3F0E08081D5
:102BD00088608C93A8E3B0E0E8E3F0E08081877F31
:102BE0008C93CF91DF910895DF93CF93CDB7DEB76C
:102BF0002E970FB6F894DEBF0FBECDBFA7E3B0E0AF
:102C0000E7E3F0E0808188608C93A8E3B0E0E8E33C
:102C1000F0E0808188608C9380E090E0A8ECB2E4E2
:102C20008B879C87AD87BE876B857C858D859E85D0
:102C300020E030E04AE753E40E944719DC01CB0171
:102C40008F839887A987BA876F81788589859A85C8
:102C500020E030E040E85FE30E944D1B88232CF425
:102C600081E090E09E838D833FC06F817885898568
:102C70009A8520E03FEF4FE757E40E94ED1A1816BF
:102C80004CF56B857C858D859E8520E030E040E2AB
:102C900051E40E944719DC01CB01BC01CD010E9427
:102CA0007117DC01CB019E838D830FC089E190E019
:102CB0009C838B838B819C810197F1F79C838B8311
:102CC0008D819E8101979E838D838D819E8100974A
:102CD00069F714C06F81788589859A850E9471177C
:102CE000DC01CB019E838D838D819E819A838983B4
:102CF00089819A810197F1F79A838983A7E3B0E0EC
:102D0000E7E3F0E08081877F8C93A8E3B0E0E8E31D
:102D1000F0E08081877F8C932E960FB6F894DEBF0B
:102D20000FBECDBFCF91DF9108951F920F920FB6C6
:102D30000F9211242F933F934F935F936F937F9341
:102D40008F939F93AF93BF93EF93FF93DF93CF93B3
:102D5000CDB7DEB70E94A714CF91DF91FF91EF911D
:102D6000BF91AF919F918F917F916F915F914F91A3
:102D70003F912F910F900FBE0F901F9018951F92AB
:102D80000F920FB60F9211242F933F934F935F939F
:102D90006F937F938F939F93AF93BF93EF93FF9323
:102DA000DF93CF93CDB7DEB70E94A714CF91DF9109
:102DB000FF91EF91BF91AF919F918F917F916F9113
:102DC0005F914F913F912F910F900FBE0F901F90E9
:102DD00018951F920F920FB60F9211242F933F93C5
:102DE0004F935F936F937F938F939F93AF93BF9313
:102DF000EF93FF93DF93CF93CDB7DEB70E94A71475
:102E0000CF91DF91FF91EF91BF91AF919F918F9102
:102E10007F916F915F914F913F912F910F900FBED6
:102E20000F901F901895DF93CF93CDB7DEB7A7E330
:102E3000B0E0E7E3F0E080818B7F8C93A8E3B0E023
:102E4000E8E3F0E080818B7F8C93AAE5B0E0EAE5CF
:102E5000F0E0808180628C93ABE5B0E0EBE5F0E0E0
:102E600080818F7D8C93E4E5F0E080E48083ABE5A6
:102E7000B0E0EBE5F0E0808180628C93CF91DF9150
:102E80000895DF93CF93CDB7DEB7AAE5B0E0EAE5CA
:102E9000F0E0808180628C93ABE5B0E0EBE5F0E0A0
:102EA00080818F7D8C93CF91DF910895DF93CF93B5
:102EB00000D0CDB7DEB77894A5E5B0E0E5E5F0E069
:102EC00080818F7880628C938895A5E5B0E0E5E5F8
:102ED000F0E080818F778C930F900F90CF91DF91EE
:102EE0000895EF92FF920F931F937B018C0120E0D6
:102EF00030E040E05FE40E941D1B88238CF0C80195
:102F0000B70120E030E040E05FE40E94E9180E9451
:102F10007D1B9B01AC01205030404040504806C012
:102F2000C801B7010E947D1B9B01AC01B901CA0118
:102F30001F910F91FF90EF900895A0E0B0E0E3EAB9
:102F4000F7E10C94A31EDC012B01FA019C91923055
:102F500008F439C1EB018881823008F433C1943020
:102F600069F4843009F02FC111969C9111978981E1
:102F7000981709F428C1A2E8B0E025C1843009F40B
:102F800021C18230A9F4923009F01DC19A01AD012E
:102F900088E0EA010990AE01E90109929E018150A1
:102FA000C1F7E201898111969C918923818308C12F
:102FB000923009F407C112962D903C901397EB01C3
:102FC0008A819B811496AD90BD90CD90DC9017972F
:102FD000EC80FD800E811F819101281B390BB90106
:102FE00037FF04C066277727621B730B60327105B9
:102FF0000CF061C0121613066CF537014801062E5D
:1030000004C096948794779467940A94D2F721E049
:1030100030E040E050E004C0220F331F441F551F32
:103020006A95D2F721503040404050402E213F2138
:1030300040235123211531054105510521F021E09F
:1030400030E040E050E079018A01E628F7280829BD
:1030500019293CC0232BD1F1260E371E350146011C
:10306000062E04C096948794779467940A94D2F7B6
:1030700021E030E040E050E004C0220F331F441F45
:10308000551F6A95D2F721503040404050402A21C8
:103090003B214C215D21211531054105510521F0D0
:1030A00021E030E040E050E059016A01A628B7284D
:1030B000C828D9280BC0821593052CF01C01AA241E
:1030C000BB24650103C0EE24FF24870111969C9167
:1030D000D20111968C91981709F445C0992339F0C3
:1030E000A80197012A193B094C095D0906C0A601F0
:1030F00095012E193F09400B510B57FD08C0118255
:103100003382228224833583468357831DC081E026
:1031100081833382228288279927DC01821B930BCB
:10312000A40BB50B84839583A683B7830DC0220FB0
:10313000331F441F551F2483358346835783828161
:1031400093810197938382832481358146815781BE
:10315000DA01C9010197A109B1098F5F9F4FAF4FF4
:10316000BF4328F30BC0918333822282EA0CFB1CFD
:103170000C1D1D1DE482F5820683178383E0808386
:10318000248135814681578157FF1AC0C901AA277A
:1031900097FDA095BA2F81709070A070B070569571
:1031A000479537952795822B932BA42BB52B84839A
:1031B0009583A683B78382819381019693838283CB
:1031C000DF0101C0D201CD01CDB7DEB7E2E10C9441
:1031D000BF1EA0E2B0E0EFEEF8E10C94AF1E6983F1
:1031E0007A838B839C832D833E834F835887E9E0CA
:1031F000EE2EF12CEC0EFD1ECE010196B7010E94C1
:103200006E1D8E010F5E1F4FCE010596B8010E9404
:103210006E1D8A8991E089278A8BC701B801AE01AA
:10322000475E5F4F0E949D170E94991CA096E6E0A2
:103230000C94CB1EA0E2B0E0E0E2F9E10C94AF1EEA
:1032400069837A838B839C832D833E834F83588746
:10325000F9E0EF2EF12CEC0EFD1ECE010196B70128
:103260000E946E1D8E010F5E1F4FCE010596B801A4
:103270000E946E1DC701B801AE01475E5F4F0E94FC
:103280009D170E94991CA096E6E00C94CB1EA0E22C
:10329000B0E0EDE4F9E10C94A31E69837A838B839B
:1032A0009C832D833E834F835887CE010196BE01B8
:1032B000675F7F4F0E946E1DCE010596BE016F5E57
:1032C0007F4F0E946E1D9985923088F089898230E7
:1032D000C8F0943019F4823051F404C0843029F4D9
:1032E000923081F482E890E0C6C0923049F420E048
:1032F0009A858A89981321E02A87CE010996BBC056
:10330000823049F420E09A858A89981321E02A8B3B
:10331000CE014196B0C02D843E844F8458886D887C
:103320007E888F88988CEE24FF248701AA24BB24F2
:10333000650140E050E060E070E0E0E0F0E0C101F5
:1033400081709070892BE9F0E60CF71C081D191D9F
:103350009A01AB012A0D3B1D4C1D5D1D80E090E0E4
:10336000A0E0B0E0E614F7040805190520F481E0B8
:1033700090E0A0E0B0E0BA01A901480F591F6A1F10
:103380007B1FAA0CBB1CCC1CDD1C97FE08C081E077
:1033900090E0A0E0B0E0A82AB92ACA2ADB2A319638
:1033A000E032F10549F0660C771C881C991C569494
:1033B000479437942794C3CFFA85EA892B893C89AF
:1033C0008B859C85280F391F2E5F3F4F17C0CA0180
:1033D00081709070892B61F016950795F794E794AA
:1033E00080E090E0A0E0B0E8E82AF92A0A2B1B2B45
:1033F00076956795579547952F5F3F4F77FDE7CFB8
:103400000CC0440F551F661F771F17FD4160EE0C5F
:10341000FF1C001F111F21503040403090E0590721
:1034200090E0690790E4790760F32B8F3C8FDB0114
:10343000CA018F779070A070B07080349105A1059B
:10344000B10561F447FD0AC0E114F104010511055D
:1034500029F0405C5F4F6F4F7F4F40781A8EFE1708
:1034600011F081E08A8F4D8F5E8F6F8F78A383E09C
:10347000898FCE0149960E94991CA096E2E10C9496
:10348000BF1EA8E1B0E0E7E4FAE10C94AB1E69834B
:103490007A838B839C832D833E834F835887B9E047
:1034A000EB2EF12CEC0EFD1ECE010196B7010E9411
:1034B0006E1D8E010F5E1F4FCE010596B8010E9452
:1034C0006E1D2985223008F47EC03989323010F40F
:1034D000B8017CC08A859A8989278A87243011F0AF
:1034E000223031F4231709F06EC062E870E06EC03C
:1034F000343039F41D861E861F86188A1C861B866A
:1035000004C0323021F484E08987B7015FC02B8585
:103510003C858B899C89281B390B3C872B87ED8444
:10352000FE840F851889AD88BE88CF88D88CEA14B0
:10353000FB040C051D0540F4EE0CFF1C001F111FC1
:10354000215030403C872B8720E030E040E050E0C5
:1035500080E090E0A0E0B0E460E070E0EA14FB04FA
:103560000C051D0540F0282B392B4A2B5B2BEA1844
:10357000FB080C091D09B695A79597958795EE0C44
:10358000FF1C001F111F6F5F7F4F6F31710531F7F7
:10359000DA01C9018F779070A070B0708034910506
:1035A000A105B10561F427FD0AC0E114F10401058C
:1035B000110529F0205C3F4F4F4F5F4F20782D873A
:1035C0003E874F87588BBE01675F7F4FCB010E94BC
:1035D000991C6896EAE00C94C71EA8E1B0E0E3EFFE
:1035E000FAE10C94AF1E69837A838B839C832D83CD
:1035F0003E834F83588789E0E82EF12CEC0EFD1EA8
:10360000CE010196B7010E946E1D8E010F5E1F4F05
:10361000CE010596B8010E946E1D8985823040F06A
:103620008989823028F0C701B8010E94E61D01C0D7
:103630008FEF6896E6E00C94CB1EA8E1B0E0E3E2E1
:10364000FBE10C94AF1E69837A838B839C832D836B
:103650003E834F83588789E0E82EF12CEC0EFD1E47
:10366000CE010196B7010E946E1D8E010F5E1F4FA5
:10367000CE010596B8010E946E1D8985823040F00A
:103680008989823028F0C701B8010E94E61D01C077
:103690008FEF6896E6E00C94CB1EA8E1B0E0E3E57E
:1036A000FBE10C94AF1E69837A838B839C832D830B
:1036B0003E834F83588789E0E82EF12CEC0EFD1EE7
:1036C000CE010196B7010E946E1D8E010F5E1F4F45
:1036D000CE010596B8010E946E1D8985823040F0AA
:1036E0008989823028F0C701B8010E94E61D01C017
:1036F00081E06896E6E00C94CB1EACE0B0E0E3E835
:10370000FBE10C94B31E69837A838B839C83CE0187
:103710000196BE016B5F7F4F0E946E1D8D818230CE
:1037200061F1823050F1843021F48E81882351F18F
:103730002EC02F81388537FD20C06E812F31310595
:103740001CF06623F9F023C08EE190E0821B930BFE
:1037500029853A854B855C8504C0569547953795F4
:1037600027958A95D2F76623B1F05095409530950C
:1037700021953F4F4F4F5F4F0EC020E030E040E0BB
:1037800050E009C02FEF3FEF4FEF5FE704C020E0AC
:1037900030E040E050E8B901CA012C96E2E00C9418
:1037A000CF1EA8E0B0E0E7EDFBE10C94AB1E7B017F
:1037B0008C01611571058105910519F482E08983F9
:1037C00060C083E089838EE1C82ED12CDC82CB825D
:1037D000ED82FE820F831887C801B7010E944A1C40
:1037E000FC013197F7FF3BC0222733272E1B3F0BED
:1037F00057016801022E04C0D694C794B794A794C9
:103800000A94D2F740E050E060E070E081E090E0A0
:10381000A0E0B0E004C0880F991FAA1FBB1F2A9523
:10382000D2F70197A109B1098E219F21A023B123CD
:103830000097A105B10521F041E050E060E070E0A3
:103840004A295B296C297D294D835E836F837887A4
:103850008EE190E08E1B9F0B9C838B8312C0309770
:1038600081F00E2E04C0EE0CFF1C001F111F0A94E5
:10387000D2F7ED82FE820F831887CE1ADF0ADC8230
:10388000CB821A82CE0101960E94991C2896EAE00A
:103890000C94C71EEF92FF920F931F937B018C0134
:1038A00080E0E81680E0F80681E0080780E018076D
:1038B00088F48FEFE816F1040105110531F028F0C6
:1038C00088E090E0A0E0B0E017C080E090E0A0E0E9
:1038D000B0E012C080E0E81680E0F80680E008075B
:1038E00081E0180728F088E190E0A0E0B0E004C093
:1038F00080E190E0A0E0B0E020E230E040E050E085
:10390000281B390B4A0B5B0B04C016950795F794DF
:10391000E7948A95D2F7F701E657FF4F8081281B7D
:10392000310941095109C9011F910F91FF90EF9091
:103930000895DF92EF92FF920F931F93FC01E480B2
:10394000F58006811781D1808081823048F480E043
:1039500090E0A0E1B0E0E82AF92A0A2B1B2BA5C0D1
:10396000843009F49FC0823021F4EE24FF248701C3
:1039700005C0E114F1040105110519F4E0E0F0E0DF
:1039800096C0628173819FEF623879070CF05BC04B
:1039900022E83FEF261B370B2A3131052CF020E0BF
:1039A00030E040E050E02AC0B801A701022E04C078
:1039B00076956795579547950A94D2F781E090E000
:1039C000A0E0B0E004C0880F991FAA1FBB1F2A9572
:1039D000D2F70197A109B1098E219F21A023B1231C
:1039E0000097A105B10521F081E090E0A0E0B0E0F2
:1039F0009A01AB01282B392B4A2B5B2BDA01C90129
:103A00008F779070A070B07080349105A105B105DA
:103A100039F427FF09C0205C3F4F4F4F5F4F04C070
:103A2000215C3F4F4F4F5F4FE0E0F0E02030A0E0DF
:103A30003A07A0E04A07A0E45A0710F0E1E0F0E0FE
:103A400079018A0127C06038710564F5FB01E158EE
:103A5000FF4FD801C7018F779070A070B07080348D
:103A60009105A105B10539F4E7FE0DC080E490E0B1
:103A7000A0E0B0E004C08FE390E0A0E0B0E0E80E8A
:103A8000F91E0A1F1B1F17FF05C016950795F7940F
:103A9000E794319687E016950795F794E7948A9511
:103AA000D1F705C0EE24FF248701EFEFF0E06E2F81
:103AB000679566276795902F9F77D794DD24D794D5
:103AC0008E2F8695492F462B582F5D29B701CA01A5
:103AD0001F910F91FF90EF90DF900895FC01DB01A3
:103AE000408151812281622F6F7770E0221F22274F
:103AF000221F9381892F880F822B282F30E0991F56
:103B00009927991F11969C93119721153105A9F5B5
:103B1000411551056105710511F482E037C082E855
:103B20009FEF13969C938E9312979A01AB0167E0D7
:103B3000220F331F441F551F6A95D1F783E08C93E2
:103B40000DC0220F331F441F551F12968D919C915B
:103B50001397019713969C938E931297203080E0D1
:103B6000380780E0480780E4580758F314962D93EF
:103B70003D934D935C93179708952F3F310579F44A
:103B8000411551056105710519F484E08C93089580
:103B900064FF03C081E08C9312C01C9210C02F57A9
:103BA000304013963C932E93129783E08C9387E0DA
:103BB000440F551F661F771F8A95D1F770641496BE
:103BC0004D935D936D937C93179708951F93DC013C
:103BD000FB019C91923008F447C08081823008F448
:103BE00043C0943051F411961C91843099F5818131
:103BF000682F70E0611B71093FC0843021F0923062
:103C000031F48230B9F18181882389F12DC0119678
:103C10001C9111978230F1F081811817D9F4129616
:103C20002D913C911397828193818217930794F091
:103C300028173907BCF014968D919D910D90BC9179
:103C4000A02D2481358146815781281739074A07DD
:103C50005B0718F4112341F00AC082179307A407E9
:103C6000B50740F4112319F061E070E005C06FEF73
:103C70007FEF02C060E070E0CB011F91089597FBD9
:103C8000092E07260AD077FD04D049D006D000209F
:103C90001AF4709561957F4F0895F6F79095819588
:103CA0009F4F0895A1E21A2EAA1BBB1BFD010DC058
:103CB000AA1FBB1FEE1FFF1FA217B307E407F507DC
:103CC00020F0A21BB30BE40BF50B661F771F881FB8
:103CD000991F1A9469F760957095809590959B014E
:103CE000AC01BD01CF01089597FB092E05260ED02A
:103CF00057FD04D0D7DF0AD0001C38F4509540950A
:103D0000309521953F4F4F4F5F4F0895F6F79095AF
:103D10008095709561957F4F8F4F9F4F0895AA1B97
:103D2000BB1B51E107C0AA1FBB1FA617B70710F0A6
:103D3000A61BB70B881F991F5A95A9F780959095D8
:103D4000BC01CD0108952F923F924F925F926F92E6
:103D50007F928F929F92AF92BF92CF92DF92EF921B
:103D6000FF920F931F93CF93DF93CDB7DEB7CA1B9C
:103D7000DB0B0FB6F894DEBF0FBECDBF09942A88C7
:103D8000398848885F846E847D848C849B84AA846F
:103D9000B984C884DF80EE80FD800C811B81AA81FC
:103DA000B981CE0FD11D0FB6F894DEBF0FBECDBFC7
:083DB000ED010895F894FFCF26
:103DB800206E4646542073616D706C652070726F7A
:103DC8006772616D0D0A000C10000200020002010A
:103DD80000010000000000000000000102020303CF
:103DE8000303040404040404040405050505050587
:103DF8000505050505050505050506060606060665
:103E0800060606060606060606060606060606064A
:103E18000606060606060606060607070707070734
:103E2800070707070707070707070707070707071A
:103E3800070707070707070707070707070707070A
:103E480007070707070707070707070707070707FA
:103E580007070707070707070707080808080808E4
:103E680008080808080808080808080808080808CA
:103E780008080808080808080808080808080808BA
:103E880008080808080808080808080808080808AA
:103E9800080808080808080808080808080808089A
:103EA800080808080808080808080808080808088A
:103EB800080808080808080808080808080808087A
:103EC800080808080808080808080808080808086A
:0A3ED8000808080808080808080890
:00000001FF
